{
  "_format": "hh-sol-artifact-1",
  "contractName": "eHKD",
  "sourceName": "contracts/token/eHKD.sol",
  "abi": [
    {
      "inputs": [
        {
          "internalType": "address",
          "name": "_admin",
          "type": "address"
        }
      ],
      "stateMutability": "nonpayable",
      "type": "constructor"
    },
    {
      "inputs": [
        {
          "internalType": "address",
          "name": "spender",
          "type": "address"
        },
        {
          "internalType": "uint256",
          "name": "allowance",
          "type": "uint256"
        },
        {
          "internalType": "uint256",
          "name": "needed",
          "type": "uint256"
        }
      ],
      "name": "ERC20InsufficientAllowance",
      "type": "error"
    },
    {
      "inputs": [
        {
          "internalType": "address",
          "name": "sender",
          "type": "address"
        },
        {
          "internalType": "uint256",
          "name": "balance",
          "type": "uint256"
        },
        {
          "internalType": "uint256",
          "name": "needed",
          "type": "uint256"
        }
      ],
      "name": "ERC20InsufficientBalance",
      "type": "error"
    },
    {
      "inputs": [
        {
          "internalType": "address",
          "name": "approver",
          "type": "address"
        }
      ],
      "name": "ERC20InvalidApprover",
      "type": "error"
    },
    {
      "inputs": [
        {
          "internalType": "address",
          "name": "receiver",
          "type": "address"
        }
      ],
      "name": "ERC20InvalidReceiver",
      "type": "error"
    },
    {
      "inputs": [
        {
          "internalType": "address",
          "name": "sender",
          "type": "address"
        }
      ],
      "name": "ERC20InvalidSender",
      "type": "error"
    },
    {
      "inputs": [
        {
          "internalType": "address",
          "name": "spender",
          "type": "address"
        }
      ],
      "name": "ERC20InvalidSpender",
      "type": "error"
    },
    {
      "anonymous": false,
      "inputs": [
        {
          "indexed": true,
          "internalType": "address",
          "name": "owner",
          "type": "address"
        },
        {
          "indexed": true,
          "internalType": "address",
          "name": "spender",
          "type": "address"
        },
        {
          "indexed": false,
          "internalType": "uint256",
          "name": "value",
          "type": "uint256"
        }
      ],
      "name": "Approval",
      "type": "event"
    },
    {
      "anonymous": false,
      "inputs": [
        {
          "indexed": true,
          "internalType": "address",
          "name": "from",
          "type": "address"
        },
        {
          "indexed": true,
          "internalType": "address",
          "name": "to",
          "type": "address"
        },
        {
          "indexed": false,
          "internalType": "uint256",
          "name": "value",
          "type": "uint256"
        }
      ],
      "name": "Transfer",
      "type": "event"
    },
    {
      "inputs": [],
      "name": "MAX_SUPPLY",
      "outputs": [
        {
          "internalType": "uint256",
          "name": "",
          "type": "uint256"
        }
      ],
      "stateMutability": "view",
      "type": "function"
    },
    {
      "inputs": [],
      "name": "admin",
      "outputs": [
        {
          "internalType": "address",
          "name": "",
          "type": "address"
        }
      ],
      "stateMutability": "view",
      "type": "function"
    },
    {
      "inputs": [
        {
          "internalType": "address",
          "name": "owner",
          "type": "address"
        },
        {
          "internalType": "address",
          "name": "spender",
          "type": "address"
        }
      ],
      "name": "allowance",
      "outputs": [
        {
          "internalType": "uint256",
          "name": "",
          "type": "uint256"
        }
      ],
      "stateMutability": "view",
      "type": "function"
    },
    {
      "inputs": [
        {
          "internalType": "address",
          "name": "spender",
          "type": "address"
        },
        {
          "internalType": "uint256",
          "name": "value",
          "type": "uint256"
        }
      ],
      "name": "approve",
      "outputs": [
        {
          "internalType": "bool",
          "name": "",
          "type": "bool"
        }
      ],
      "stateMutability": "nonpayable",
      "type": "function"
    },
    {
      "inputs": [
        {
          "internalType": "address",
          "name": "account",
          "type": "address"
        }
      ],
      "name": "balanceOf",
      "outputs": [
        {
          "internalType": "uint256",
          "name": "",
          "type": "uint256"
        }
      ],
      "stateMutability": "view",
      "type": "function"
    },
    {
      "inputs": [],
      "name": "decimals",
      "outputs": [
        {
          "internalType": "uint8",
          "name": "",
          "type": "uint8"
        }
      ],
      "stateMutability": "view",
      "type": "function"
    },
    {
      "inputs": [
        {
          "internalType": "address",
          "name": "to",
          "type": "address"
        },
        {
          "internalType": "uint256",
          "name": "amount",
          "type": "uint256"
        }
      ],
      "name": "mint",
      "outputs": [],
      "stateMutability": "nonpayable",
      "type": "function"
    },
    {
      "inputs": [],
      "name": "name",
      "outputs": [
        {
          "internalType": "string",
          "name": "",
          "type": "string"
        }
      ],
      "stateMutability": "view",
      "type": "function"
    },
    {
      "inputs": [],
      "name": "symbol",
      "outputs": [
        {
          "internalType": "string",
          "name": "",
          "type": "string"
        }
      ],
      "stateMutability": "view",
      "type": "function"
    },
    {
      "inputs": [],
      "name": "totalSupply",
      "outputs": [
        {
          "internalType": "uint256",
          "name": "",
          "type": "uint256"
        }
      ],
      "stateMutability": "view",
      "type": "function"
    },
    {
      "inputs": [
        {
          "internalType": "address",
          "name": "to",
          "type": "address"
        },
        {
          "internalType": "uint256",
          "name": "value",
          "type": "uint256"
        }
      ],
      "name": "transfer",
      "outputs": [
        {
          "internalType": "bool",
          "name": "",
          "type": "bool"
        }
      ],
      "stateMutability": "nonpayable",
      "type": "function"
    },
    {
      "inputs": [
        {
          "internalType": "address",
          "name": "from",
          "type": "address"
        },
        {
          "internalType": "address",
          "name": "to",
          "type": "address"
        },
        {
          "internalType": "uint256",
          "name": "value",
          "type": "uint256"
        }
      ],
      "name": "transferFrom",
      "outputs": [
        {
          "internalType": "bool",
          "name": "",
          "type": "bool"
        }
      ],
      "stateMutability": "nonpayable",
      "type": "function"
    }
  ],
  "bytecode": "0x60806040526b033b2e3c9fd0803ce80000006006553480156200002157600080fd5b5060405162000be538038062000be5833981016040819052620000449162000239565b604080518082018252600480825263195212d160e21b602080840182905284518086019095529184529083015290600362000080838262000312565b5060046200008f828262000312565b5050600580546001600160a01b0319166001600160a01b03841617905550600654620000bd908290620000c4565b5062000406565b6001600160a01b038216620000f45760405163ec442f0560e01b8152600060048201526024015b60405180910390fd5b620001026000838362000106565b5050565b6001600160a01b03831662000135578060026000828254620001299190620003de565b90915550620001a99050565b6001600160a01b038316600090815260208190526040902054818110156200018a5760405163391434e360e21b81526001600160a01b03851660048201526024810182905260448101839052606401620000eb565b6001600160a01b03841660009081526020819052604090209082900390555b6001600160a01b038216620001c757600280548290039055620001e6565b6001600160a01b03821660009081526020819052604090208054820190555b816001600160a01b0316836001600160a01b03167fddf252ad1be2c89b69c2b068fc378daa952ba7f163c4a11628f55a4df523b3ef836040516200022c91815260200190565b60405180910390a3505050565b6000602082840312156200024c57600080fd5b81516001600160a01b03811681146200026457600080fd5b9392505050565b634e487b7160e01b600052604160045260246000fd5b600181811c908216806200029657607f821691505b602082108103620002b757634e487b7160e01b600052602260045260246000fd5b50919050565b601f8211156200030d576000816000526020600020601f850160051c81016020861015620002e85750805b601f850160051c820191505b818110156200030957828155600101620002f4565b5050505b505050565b81516001600160401b038111156200032e576200032e6200026b565b62000346816200033f845462000281565b84620002bd565b602080601f8311600181146200037e5760008415620003655750858301515b600019600386901b1c1916600185901b17855562000309565b600085815260208120601f198616915b82811015620003af578886015182559484019460019091019084016200038e565b5085821015620003ce5787850151600019600388901b60f8161c191681555b5050505050600190811b01905550565b808201808211156200040057634e487b7160e01b600052601160045260246000fd5b92915050565b6107cf80620004166000396000f3fe608060405234801561001057600080fd5b50600436106100b45760003560e01c806340c10f191161007157806340c10f191461013757806370a082311461014c57806395d89b4114610175578063a9059cbb1461017d578063dd62ed3e14610190578063f851a440146101c957600080fd5b806306fdde03146100b9578063095ea7b3146100d757806318160ddd146100fa57806323b872dd1461010c578063313ce5671461011f57806332cb6b0c1461012e575b600080fd5b6100c16101f4565b6040516100ce9190610618565b60405180910390f35b6100ea6100e5366004610683565b610286565b60405190151581526020016100ce565b6002545b6040519081526020016100ce565b6100ea61011a3660046106ad565b6102a0565b604051601281526020016100ce565b6100fe60065481565b61014a610145366004610683565b6102c4565b005b6100fe61015a3660046106e9565b6001600160a01b031660009081526020819052604090205490565b6100c16102d2565b6100ea61018b366004610683565b6102e1565b6100fe61019e36600461070b565b6001600160a01b03918216600090815260016020908152604080832093909416825291909152205490565b6005546101dc906001600160a01b031681565b6040516001600160a01b0390911681526020016100ce565b6060600380546102039061073e565b80601f016020809104026020016040519081016040528092919081815260200182805461022f9061073e565b801561027c5780601f106102515761010080835404028352916020019161027c565b820191906000526020600020905b81548152906001019060200180831161025f57829003601f168201915b5050505050905090565b6000336102948185856102ef565b60019150505b92915050565b6000336102ae858285610301565b6102b9858585610384565b506001949350505050565b6102ce82826103e3565b5050565b6060600480546102039061073e565b600033610294818585610384565b6102fc8383836001610419565b505050565b6001600160a01b03838116600090815260016020908152604080832093861683529290522054600019811461037e578181101561036f57604051637dc7a0d960e11b81526001600160a01b038416600482015260248101829052604481018390526064015b60405180910390fd5b61037e84848484036000610419565b50505050565b6001600160a01b0383166103ae57604051634b637e8f60e11b815260006004820152602401610366565b6001600160a01b0382166103d85760405163ec442f0560e01b815260006004820152602401610366565b6102fc8383836104ee565b6001600160a01b03821661040d5760405163ec442f0560e01b815260006004820152602401610366565b6102ce600083836104ee565b6001600160a01b0384166104435760405163e602df0560e01b815260006004820152602401610366565b6001600160a01b03831661046d57604051634a1406b160e11b815260006004820152602401610366565b6001600160a01b038085166000908152600160209081526040808320938716835292905220829055801561037e57826001600160a01b0316846001600160a01b03167f8c5be1e5ebec7d5bd14f71427d1e84f3dd0314c0f7b2291e5b200ac8c7c3b925846040516104e091815260200190565b60405180910390a350505050565b6001600160a01b03831661051957806002600082825461050e9190610778565b9091555061058b9050565b6001600160a01b0383166000908152602081905260409020548181101561056c5760405163391434e360e21b81526001600160a01b03851660048201526024810182905260448101839052606401610366565b6001600160a01b03841660009081526020819052604090209082900390555b6001600160a01b0382166105a7576002805482900390556105c6565b6001600160a01b03821660009081526020819052604090208054820190555b816001600160a01b0316836001600160a01b03167fddf252ad1be2c89b69c2b068fc378daa952ba7f163c4a11628f55a4df523b3ef8360405161060b91815260200190565b60405180910390a3505050565b60006020808352835180602085015260005b818110156106465785810183015185820160400152820161062a565b506000604082860101526040601f19601f8301168501019250505092915050565b80356001600160a01b038116811461067e57600080fd5b919050565b6000806040838503121561069657600080fd5b61069f83610667565b946020939093013593505050565b6000806000606084860312156106c257600080fd5b6106cb84610667565b92506106d960208501610667565b9150604084013590509250925092565b6000602082840312156106fb57600080fd5b61070482610667565b9392505050565b6000806040838503121561071e57600080fd5b61072783610667565b915061073560208401610667565b90509250929050565b600181811c9082168061075257607f821691505b60208210810361077257634e487b7160e01b600052602260045260246000fd5b50919050565b8082018082111561029a57634e487b7160e01b600052601160045260246000fdfea2646970667358221220e98e346d98fdaa610ae46391936c65809e9c7f72dd2215e9b93d6ff553738a4e64736f6c63430008180033",
  "linkReferences": {},
  "deployedLinkReferences": {}
}