{
  "_format": "hh-sol-artifact-1",
  "contractName": "RentalEscrow",
  "sourceName": "contracts/rentalEscrow/RentalEscrow.sol",
  "abi": [
    {
      "inputs": [],
      "name": "EnforcedPause",
      "type": "error"
    },
    {
      "inputs": [],
      "name": "ExpectedPause",
      "type": "error"
    },
    {
      "inputs": [],
      "name": "InvalidInitialization",
      "type": "error"
    },
    {
      "inputs": [],
      "name": "NotInitializing",
      "type": "error"
    },
    {
      "inputs": [
        {
          "internalType": "address",
          "name": "owner",
          "type": "address"
        }
      ],
      "name": "OwnableInvalidOwner",
      "type": "error"
    },
    {
      "inputs": [
        {
          "internalType": "address",
          "name": "account",
          "type": "address"
        }
      ],
      "name": "OwnableUnauthorizedAccount",
      "type": "error"
    },
    {
      "inputs": [],
      "name": "ReentrancyGuardReentrantCall",
      "type": "error"
    },
    {
      "anonymous": false,
      "inputs": [
        {
          "indexed": false,
          "internalType": "uint256",
          "name": "dealId",
          "type": "uint256"
        }
      ],
      "name": "DealClosed",
      "type": "event"
    },
    {
      "anonymous": false,
      "inputs": [
        {
          "indexed": false,
          "internalType": "uint256",
          "name": "dealId",
          "type": "uint256"
        },
        {
          "indexed": false,
          "internalType": "address",
          "name": "maker",
          "type": "address"
        },
        {
          "indexed": false,
          "internalType": "address",
          "name": "taker",
          "type": "address"
        },
        {
          "indexed": false,
          "internalType": "address",
          "name": "token",
          "type": "address"
        },
        {
          "indexed": false,
          "internalType": "uint256",
          "name": "amount",
          "type": "uint256"
        }
      ],
      "name": "DealCreated",
      "type": "event"
    },
    {
      "anonymous": false,
      "inputs": [
        {
          "indexed": false,
          "internalType": "uint64",
          "name": "version",
          "type": "uint64"
        }
      ],
      "name": "Initialized",
      "type": "event"
    },
    {
      "anonymous": false,
      "inputs": [
        {
          "indexed": false,
          "internalType": "uint256",
          "name": "dealId",
          "type": "uint256"
        },
        {
          "indexed": false,
          "internalType": "uint256",
          "name": "amount",
          "type": "uint256"
        },
        {
          "indexed": false,
          "internalType": "uint256",
          "name": "totalReleasedAmount",
          "type": "uint256"
        }
      ],
      "name": "MakerReleasedFund",
      "type": "event"
    },
    {
      "anonymous": false,
      "inputs": [
        {
          "indexed": true,
          "internalType": "address",
          "name": "previousOwner",
          "type": "address"
        },
        {
          "indexed": true,
          "internalType": "address",
          "name": "newOwner",
          "type": "address"
        }
      ],
      "name": "OwnershipTransferred",
      "type": "event"
    },
    {
      "anonymous": false,
      "inputs": [
        {
          "indexed": false,
          "internalType": "address",
          "name": "account",
          "type": "address"
        }
      ],
      "name": "Paused",
      "type": "event"
    },
    {
      "anonymous": false,
      "inputs": [
        {
          "indexed": false,
          "internalType": "uint256",
          "name": "dealId",
          "type": "uint256"
        },
        {
          "indexed": false,
          "internalType": "bool",
          "name": "isMakerCanReleaseFund",
          "type": "bool"
        }
      ],
      "name": "TakerApprovedFundRelease",
      "type": "event"
    },
    {
      "anonymous": false,
      "inputs": [
        {
          "indexed": false,
          "internalType": "uint256",
          "name": "dealId",
          "type": "uint256"
        },
        {
          "indexed": false,
          "internalType": "uint256",
          "name": "amount",
          "type": "uint256"
        },
        {
          "indexed": false,
          "internalType": "uint256",
          "name": "remainingSettledAmount",
          "type": "uint256"
        }
      ],
      "name": "TakerRetrievedFund",
      "type": "event"
    },
    {
      "anonymous": false,
      "inputs": [
        {
          "indexed": false,
          "internalType": "uint256",
          "name": "dealId",
          "type": "uint256"
        },
        {
          "indexed": false,
          "internalType": "uint256",
          "name": "amount",
          "type": "uint256"
        },
        {
          "indexed": false,
          "internalType": "uint256",
          "name": "totalSettledAmount",
          "type": "uint256"
        }
      ],
      "name": "TakerSettled",
      "type": "event"
    },
    {
      "anonymous": false,
      "inputs": [
        {
          "indexed": false,
          "internalType": "address",
          "name": "account",
          "type": "address"
        }
      ],
      "name": "Unpaused",
      "type": "event"
    },
    {
      "inputs": [
        {
          "internalType": "address",
          "name": "_addr",
          "type": "address"
        },
        {
          "internalType": "bool",
          "name": "_isWhitelisted",
          "type": "bool"
        }
      ],
      "name": "addWhitelist",
      "outputs": [],
      "stateMutability": "nonpayable",
      "type": "function"
    },
    {
      "inputs": [
        {
          "internalType": "address",
          "name": "_addr",
          "type": "address"
        },
        {
          "internalType": "bool",
          "name": "_isWhitelisted",
          "type": "bool"
        }
      ],
      "name": "addWhitelistedToken",
      "outputs": [],
      "stateMutability": "nonpayable",
      "type": "function"
    },
    {
      "inputs": [
        {
          "internalType": "address[]",
          "name": "_addrs",
          "type": "address[]"
        },
        {
          "internalType": "bool[]",
          "name": "_isWhitelisted",
          "type": "bool[]"
        }
      ],
      "name": "addWhitelistedTokens",
      "outputs": [],
      "stateMutability": "nonpayable",
      "type": "function"
    },
    {
      "inputs": [
        {
          "internalType": "address[]",
          "name": "_addrs",
          "type": "address[]"
        },
        {
          "internalType": "bool[]",
          "name": "_isWhitelisted",
          "type": "bool[]"
        }
      ],
      "name": "addWhitelists",
      "outputs": [],
      "stateMutability": "nonpayable",
      "type": "function"
    },
    {
      "inputs": [
        {
          "internalType": "uint256",
          "name": "dealId",
          "type": "uint256"
        }
      ],
      "name": "canMakerReleaseFund",
      "outputs": [
        {
          "internalType": "bool",
          "name": "",
          "type": "bool"
        }
      ],
      "stateMutability": "view",
      "type": "function"
    },
    {
      "inputs": [
        {
          "internalType": "uint256",
          "name": "_dealId",
          "type": "uint256"
        }
      ],
      "name": "closeDeal",
      "outputs": [],
      "stateMutability": "nonpayable",
      "type": "function"
    },
    {
      "inputs": [
        {
          "internalType": "uint256",
          "name": "_dealId",
          "type": "uint256"
        },
        {
          "internalType": "address",
          "name": "_token",
          "type": "address"
        },
        {
          "internalType": "uint256",
          "name": "_amount",
          "type": "uint256"
        }
      ],
      "name": "fundDeal",
      "outputs": [],
      "stateMutability": "nonpayable",
      "type": "function"
    },
    {
      "inputs": [
        {
          "internalType": "uint256",
          "name": "_dealId",
          "type": "uint256"
        }
      ],
      "name": "getDeal",
      "outputs": [
        {
          "components": [
            {
              "internalType": "address",
              "name": "maker",
              "type": "address"
            },
            {
              "internalType": "address",
              "name": "taker",
              "type": "address"
            },
            {
              "internalType": "address",
              "name": "token",
              "type": "address"
            },
            {
              "internalType": "uint256",
              "name": "requestedAmount",
              "type": "uint256"
            },
            {
              "internalType": "uint256",
              "name": "settledAmount",
              "type": "uint256"
            },
            {
              "internalType": "uint256",
              "name": "releasedAmount",
              "type": "uint256"
            },
            {
              "internalType": "bool",
              "name": "isTakerFullySettled",
              "type": "bool"
            },
            {
              "internalType": "bool",
              "name": "isMakerCanReleaseFund",
              "type": "bool"
            },
            {
              "internalType": "bool",
              "name": "isFundFullyReleasedToMaker",
              "type": "bool"
            },
            {
              "internalType": "bool",
              "name": "isActive",
              "type": "bool"
            }
          ],
          "internalType": "struct IRentalEscrow.Deal",
          "name": "",
          "type": "tuple"
        }
      ],
      "stateMutability": "view",
      "type": "function"
    },
    {
      "inputs": [],
      "name": "getDealCounter",
      "outputs": [
        {
          "internalType": "uint256",
          "name": "",
          "type": "uint256"
        }
      ],
      "stateMutability": "view",
      "type": "function"
    },
    {
      "inputs": [
        {
          "internalType": "uint256",
          "name": "dealId",
          "type": "uint256"
        }
      ],
      "name": "getMaker",
      "outputs": [
        {
          "internalType": "address",
          "name": "",
          "type": "address"
        }
      ],
      "stateMutability": "view",
      "type": "function"
    },
    {
      "inputs": [
        {
          "internalType": "uint256",
          "name": "dealId",
          "type": "uint256"
        }
      ],
      "name": "getReleasedAmount",
      "outputs": [
        {
          "internalType": "uint256",
          "name": "",
          "type": "uint256"
        }
      ],
      "stateMutability": "view",
      "type": "function"
    },
    {
      "inputs": [
        {
          "internalType": "uint256",
          "name": "dealId",
          "type": "uint256"
        }
      ],
      "name": "getRequestedAmount",
      "outputs": [
        {
          "internalType": "uint256",
          "name": "",
          "type": "uint256"
        }
      ],
      "stateMutability": "view",
      "type": "function"
    },
    {
      "inputs": [
        {
          "internalType": "uint256",
          "name": "dealId",
          "type": "uint256"
        }
      ],
      "name": "getSettledAmount",
      "outputs": [
        {
          "internalType": "uint256",
          "name": "",
          "type": "uint256"
        }
      ],
      "stateMutability": "view",
      "type": "function"
    },
    {
      "inputs": [
        {
          "internalType": "uint256",
          "name": "dealId",
          "type": "uint256"
        }
      ],
      "name": "getTaker",
      "outputs": [
        {
          "internalType": "address",
          "name": "",
          "type": "address"
        }
      ],
      "stateMutability": "view",
      "type": "function"
    },
    {
      "inputs": [
        {
          "internalType": "uint256",
          "name": "dealId",
          "type": "uint256"
        }
      ],
      "name": "getToken",
      "outputs": [
        {
          "internalType": "address",
          "name": "",
          "type": "address"
        }
      ],
      "stateMutability": "view",
      "type": "function"
    },
    {
      "inputs": [
        {
          "internalType": "address[]",
          "name": "_whitelisted",
          "type": "address[]"
        },
        {
          "internalType": "address[]",
          "name": "_whitelistedTokens",
          "type": "address[]"
        }
      ],
      "name": "initialize",
      "outputs": [],
      "stateMutability": "nonpayable",
      "type": "function"
    },
    {
      "inputs": [
        {
          "internalType": "uint256",
          "name": "dealId",
          "type": "uint256"
        }
      ],
      "name": "isActive",
      "outputs": [
        {
          "internalType": "bool",
          "name": "",
          "type": "bool"
        }
      ],
      "stateMutability": "view",
      "type": "function"
    },
    {
      "inputs": [
        {
          "internalType": "uint256",
          "name": "dealId",
          "type": "uint256"
        }
      ],
      "name": "isFundFullyReleasedToMaker",
      "outputs": [
        {
          "internalType": "bool",
          "name": "",
          "type": "bool"
        }
      ],
      "stateMutability": "view",
      "type": "function"
    },
    {
      "inputs": [
        {
          "internalType": "uint256",
          "name": "dealId",
          "type": "uint256"
        }
      ],
      "name": "isTakerFullySettled",
      "outputs": [
        {
          "internalType": "bool",
          "name": "",
          "type": "bool"
        }
      ],
      "stateMutability": "view",
      "type": "function"
    },
    {
      "inputs": [
        {
          "internalType": "address",
          "name": "_token",
          "type": "address"
        }
      ],
      "name": "isTokenWhitelisted",
      "outputs": [
        {
          "internalType": "bool",
          "name": "",
          "type": "bool"
        }
      ],
      "stateMutability": "view",
      "type": "function"
    },
    {
      "inputs": [
        {
          "internalType": "address",
          "name": "addr",
          "type": "address"
        }
      ],
      "name": "isWhitelisted",
      "outputs": [
        {
          "internalType": "bool",
          "name": "",
          "type": "bool"
        }
      ],
      "stateMutability": "view",
      "type": "function"
    },
    {
      "inputs": [
        {
          "internalType": "address",
          "name": "_taker",
          "type": "address"
        },
        {
          "internalType": "address",
          "name": "_token",
          "type": "address"
        },
        {
          "internalType": "uint256",
          "name": "_requestedAmount",
          "type": "uint256"
        }
      ],
      "name": "openDeal",
      "outputs": [],
      "stateMutability": "nonpayable",
      "type": "function"
    },
    {
      "inputs": [],
      "name": "owner",
      "outputs": [
        {
          "internalType": "address",
          "name": "",
          "type": "address"
        }
      ],
      "stateMutability": "view",
      "type": "function"
    },
    {
      "inputs": [],
      "name": "paused",
      "outputs": [
        {
          "internalType": "bool",
          "name": "",
          "type": "bool"
        }
      ],
      "stateMutability": "view",
      "type": "function"
    },
    {
      "inputs": [
        {
          "internalType": "uint256",
          "name": "_dealId",
          "type": "uint256"
        },
        {
          "internalType": "address",
          "name": "_token",
          "type": "address"
        },
        {
          "internalType": "uint256",
          "name": "_amount",
          "type": "uint256"
        }
      ],
      "name": "releaseFunds",
      "outputs": [],
      "stateMutability": "nonpayable",
      "type": "function"
    },
    {
      "inputs": [],
      "name": "renounceOwnership",
      "outputs": [],
      "stateMutability": "nonpayable",
      "type": "function"
    },
    {
      "inputs": [
        {
          "internalType": "uint256",
          "name": "_dealId",
          "type": "uint256"
        },
        {
          "internalType": "address",
          "name": "_token",
          "type": "address"
        },
        {
          "internalType": "uint256",
          "name": "_amount",
          "type": "uint256"
        }
      ],
      "name": "retrieveFunds",
      "outputs": [],
      "stateMutability": "nonpayable",
      "type": "function"
    },
    {
      "inputs": [
        {
          "internalType": "uint256",
          "name": "_dealId",
          "type": "uint256"
        },
        {
          "internalType": "bool",
          "name": "value",
          "type": "bool"
        }
      ],
      "name": "setIsMakerCanReleaseFund",
      "outputs": [],
      "stateMutability": "nonpayable",
      "type": "function"
    },
    {
      "inputs": [
        {
          "internalType": "address",
          "name": "newOwner",
          "type": "address"
        }
      ],
      "name": "transferOwnership",
      "outputs": [],
      "stateMutability": "nonpayable",
      "type": "function"
    }
  ],
  "bytecode": "0x608060405234801561001057600080fd5b506123bc806100206000396000f3fe608060405234801561001057600080fd5b50600436106101cf5760003560e01c806382fd5bac11610104578063c6bf0e1c116100a2578063e12f5bfe11610071578063e12f5bfe146104b2578063e4b50cb8146104c5578063ecab443f146104f1578063f2fde38b1461051457600080fd5b8063c6bf0e1c14610420578063cbcc5b2814610433578063d12642ac14610460578063dc8744841461048657600080fd5b80638da5cb5b116100de5780638da5cb5b146103b75780639ea4eab3146103bf578063a375c6de146103e2578063b5af090f1461040d57600080fd5b806382fd5bac146103615780638cb8cd49146103815780638cd7d8301461039457600080fd5b80635686153211610171578063715018a61161014b578063715018a61461030657806373cf25f81461030e57806374c95f4e1461032157806382afd23b1461033457600080fd5b806356861532146102885780635856809e146102c95780635c975abb146102dc57600080fd5b806334d99a8d116101ad57806334d99a8d1461020f5780633714020e146102225780633af32abf14610235578063439138fd1461027657600080fd5b80631383ba16146101d4578063319af8f5146101e9578063344952f1146101fc575b600080fd5b6101e76101e2366004611e76565b610527565b005b6101e76101f7366004611e76565b6105f3565b6101e761020a366004611efe565b6106af565b6101e761021d366004611f33565b610a22565b6101e7610230366004611f5a565b610b89565b610261610243366004611f91565b6001600160a01b031660009081526002602052604090205460ff1690565b60405190151581526020015b60405180910390f35b6000545b60405190815260200161026d565b6102b1610296366004611f33565b6000908152600160205260409020546001600160a01b031690565b6040516001600160a01b03909116815260200161026d565b6101e76102d7366004611f5a565b610c50565b7fcd5ed15c6e187e77e9aee88184c21f4f2182ab5827cb3b7e07fbedcd63f033005460ff16610261565b6101e7610d17565b6101e761031c36600461206e565b610d2b565b6101e761032f366004611efe565b610f24565b610261610342366004611f33565b6000908152600160205260409020600601546301000000900460ff1690565b61037461036f366004611f33565b611396565b60405161026d91906120d2565b6101e761038f366004612181565b61148d565b61027a6103a2366004611f33565b60009081526001602052604090206003015490565b6102b16116b7565b61027a6103cd366004611f33565b60009081526001602052604090206004015490565b6102616103f0366004611f33565b600090815260016020526040902060060154610100900460ff1690565b61026161041b366004611f91565b6116e5565b6101e761042e366004611efe565b611703565b6102b1610441366004611f33565b600090815260016020819052604090912001546001600160a01b031690565b61026161046e366004611f33565b60009081526001602052604090206006015460ff1690565b610261610494366004611f33565b60009081526001602052604090206006015462010000900460ff1690565b6101e76104c03660046121a6565b611a33565b6102b16104d3366004611f33565b6000908152600160205260409020600201546001600160a01b031690565b61027a6104ff366004611f33565b60009081526001602052604090206005015490565b6101e7610522366004611f91565b611c00565b3360009081526002602052604090205460ff1661055f5760405162461bcd60e51b8152600401610556906121d2565b60405180910390fd5b60005b838110156105ec5782828281811061057c5761057c612209565b9050602002016020810190610591919061221f565b600260008787858181106105a7576105a7612209565b90506020020160208101906105bc9190611f91565b6001600160a01b031681526020810191909152604001600020805460ff1916911515919091179055600101610562565b5050505050565b3360009081526002602052604090205460ff166106225760405162461bcd60e51b8152600401610556906121d2565b60005b838110156105ec5782828281811061063f5761063f612209565b9050602002016020810190610654919061221f565b6003600087878581811061066a5761066a612209565b905060200201602081019061067f9190611f91565b6001600160a01b031681526020810191909152604001600020805460ff1916911515919091179055600101610625565b6106b7611c3b565b6106bf611c7e565b60006106ca84611396565b516001600160a01b0316036106f15760405162461bcd60e51b81526004016105569061223c565b600083815260016020526040902060068101546301000000900460ff16156107525760405162461bcd60e51b81526020600482015260146024820152734465616c206973207374696c6c2061637469766560601b6044820152606401610556565b60018101546001600160a01b031633146107c75760405162461bcd60e51b815260206004820152603060248201527f4f6e6c792064657369676e617465642074616b65722063616e2063616c6c207460448201526f6f2072657472696576652066756e647360801b6064820152608401610556565b60028101546001600160a01b038481169116146107f65760405162461bcd60e51b815260040161055690612264565b6107ff836116e5565b61081b5760405162461bcd60e51b81526004016105569061228d565b806004015460000361086f5760405162461bcd60e51b815260206004820152601b60248201527f4e6f20736574746c656420616d6f756e742072656d61696e696e6700000000006044820152606401610556565b600082116108b85760405162461bcd60e51b8152602060048201526016602482015275125b9d985b1a59081c995c5d595cdd08185b5bdd5b9d60521b6044820152606401610556565b80600401548211156109325760405162461bcd60e51b815260206004820152603b60248201527f43616e6e6f7420726574726965766520616d6f756e742068696768657220746860448201527f616e2072656d61696e696e6720736574746c656420616d6f756e7400000000006064820152608401610556565b60405163a9059cbb60e01b8152336004820152602481018390526001600160a01b0384169063a9059cbb906044016020604051808303816000875af115801561097f573d6000803e3d6000fd5b505050506040513d601f19601f820116820180604052508101906109a391906122c4565b50818160040160008282546109b891906122f7565b909155505060048101546040805186815260208101859052908101919091527f7f733f9dd7702006a9b525fc0ec538d979d15b7daf84a274c06950999649d4db906060015b60405180910390a150610a1d600160008051602061236783398151915255565b505050565b610a2a611c3b565b610a32611c7e565b6000610a3d82611396565b516001600160a01b031603610a645760405162461bcd60e51b81526004016105569061223c565b600081815260016020526040902060068101546301000000900460ff16610ac25760405162461bcd60e51b81526020600482015260126024820152714465616c206973206e6f742061637469766560701b6044820152606401610556565b80546001600160a01b03163314610b2c5760405162461bcd60e51b815260206004820152602860248201527f4f6e6c792064657369676e61746564206d616b65722063616e20636c6f7365206044820152671d1a19481919585b60c21b6064820152608401610556565b60068101805463ff000000191690556040518281527fb0f2e6b073efd0dc79dfbeb0e9a1e324fd70506f44f6d2b63301d17deebaeada9060200160405180910390a150610b86600160008051602061236783398151915255565b50565b3360009081526002602052604090205460ff16610bb85760405162461bcd60e51b8152600401610556906121d2565b80610c25576001600160a01b03821660009081526002602052604090205460ff16610c255760405162461bcd60e51b815260206004820152601e60248201527f41646472657373206e6f7420666f756e6420696e2077686974656c69737400006044820152606401610556565b6001600160a01b03919091166000908152600260205260409020805460ff1916911515919091179055565b3360009081526002602052604090205460ff16610c7f5760405162461bcd60e51b8152600401610556906121d2565b80610cec57610c8d826116e5565b610cec5760405162461bcd60e51b815260206004820152602a60248201527f546f6b656e2061646472657373206e6f7420666f756e6420696e20746f6b656e604482015269081dda1a5d195b1a5cdd60b21b6064820152608401610556565b6001600160a01b03919091166000908152600360205260409020805460ff1916911515919091179055565b610d1f611cca565b610d296000611cfc565b565b7ff0c57e16840df040f15088dc2f81fe391c3923bec73e23a9662efc9c229c6a008054600160401b810460ff16159067ffffffffffffffff16600081158015610d715750825b905060008267ffffffffffffffff166001148015610d8e5750303b155b905081158015610d9c575080155b15610dba5760405163f92ee8a960e01b815260040160405180910390fd5b845467ffffffffffffffff191660011785558315610de457845460ff60401b1916600160401b1785555b610ded33611d6d565b610df5611d7e565b610dfd611d8e565b6000808055338152600260205260408120805460ff191660011790555b8751811015610e75576001600260008a8481518110610e3b57610e3b612209565b6020908102919091018101516001600160a01b03168252810191909152604001600020805460ff1916911515919091179055600101610e1a565b5060005b8651811015610ed457600160036000898481518110610e9a57610e9a612209565b6020908102919091018101516001600160a01b03168252810191909152604001600020805460ff1916911515919091179055600101610e79565b508315610f1b57845460ff60401b19168555604051600181527fc7f505b2f371ae2175ee4913f4499e1f2633a7b5936321eed1cdaeb6115181d29060200160405180910390a15b50505050505050565b610f2c611c3b565b610f34611c7e565b6000610f3f84611396565b516001600160a01b031603610f665760405162461bcd60e51b81526004016105569061223c565b600083815260016020526040902060068101546301000000900460ff16610f9f5760405162461bcd60e51b815260040161055690612310565b600681015462010000900460ff16156110065760405162461bcd60e51b8152602060048201526024808201527f46756e6420616c72656164792066756c6c792072656c656173656420746f206d60448201526330b5b2b960e11b6064820152608401610556565b80546001600160a01b031633148061103657506110216116b7565b6001600160a01b0316336001600160a01b0316145b61109a5760405162461bcd60e51b815260206004820152602f60248201527f4f6e6c792064657369676e61746564206d616b65722063616e2063616c6c207460448201526e6f2072656c656173652066756e647360881b6064820152608401610556565b60028101546001600160a01b038481169116146110c95760405162461bcd60e51b815260040161055690612264565b6110d2836116e5565b6110ee5760405162461bcd60e51b81526004016105569061228d565b6006810154610100900460ff166111525760405162461bcd60e51b815260206004820152602260248201527f46756e642072656c65617365206e6f7420617070726f7665642062792074616b60448201526132b960f11b6064820152608401610556565b6000821161119b5760405162461bcd60e51b8152602060048201526016602482015275125b9d985b1a59081c995c5d595cdd08185b5bdd5b9d60521b6044820152606401610556565b806005015481600301546111af91906122f7565b8211156112245760405162461bcd60e51b815260206004820152603c60248201527f43616e6e6f742072656c6561736520616d6f756e74206869676865722074686160448201527f6e2072656d61696e696e672072657175657374656420616d6f756e74000000006064820152608401610556565b806004015482111561129e5760405162461bcd60e51b815260206004820152603960248201527f43616e6e6f742072656c6561736520616d6f756e74206869676865722074686160448201527f6e20616d6f756e7420736574746c65642062792074616b6572000000000000006064820152608401610556565b805460405163a9059cbb60e01b81526001600160a01b039182166004820152602481018490529084169063a9059cbb906044016020604051808303816000875af11580156112f0573d6000803e3d6000fd5b505050506040513d601f19601f8201168201806040525081019061131491906122c4565b5081816005016000828254611329919061233a565b909155505060038101546005820154036113525760068101805463ffff00001916620100001790555b60058101546040805186815260208101859052908101919091527fb59bcad191db0dc79316be9988269962fc65763e9b6515794c0a51e7999be05b906060016109fd565b6040805161014081018252600080825260208201819052918101829052606081018290526080810182905260a0810182905260c0810182905260e0810182905261010081018290526101208101919091525060009081526001602081815260409283902083516101408101855281546001600160a01b039081168252938201548416928101929092526002810154909216928101929092526003810154606083015260048101546080830152600581015460a08301526006015460ff808216151560c08401526101008083048216151560e08501526201000083048216151590840152630100000090910416151561012082015290565b611495611c3b565b61149d611c7e565b60006114a883611396565b516001600160a01b0316036114cf5760405162461bcd60e51b81526004016105569061223c565b600082815260016020526040902060068101546301000000900460ff166115085760405162461bcd60e51b815260040161055690612310565b60018101546001600160a01b0316331461157b5760405162461bcd60e51b815260206004820152602e60248201527f4f6e6c792064657369676e617465642074616b65722063616e20617070726f7660448201526d652066756e642072656c6561736560901b6064820152608401610556565b81156116465760008160040154116115e05760405162461bcd60e51b815260206004820152602260248201527f54616b657220686176656e277420736574746c656420616e792066756e642079604482015261195d60f21b6064820152608401610556565b6006810154610100900460ff16156116465760405162461bcd60e51b815260206004820152602360248201527f54616b657220616c726561647920617070726f7665642066756e642072656c6560448201526261736560e81b6064820152608401610556565b60068101805461ff001916610100841515908102919091179091556040805185815260208101929092527fff9067af16f0ac62192d27253fe9207732412e8d0cd511185a4c37e02fb25037910160405180910390a1506116b3600160008051602061236783398151915255565b5050565b7f9016d09d72d40fdae2fd8ceac6b6234c7706214fd39c1cd1e609a0528c199300546001600160a01b031690565b6001600160a01b031660009081526003602052604090205460ff1690565b61170b611c3b565b611713611c7e565b600061171e84611396565b516001600160a01b0316036117455760405162461bcd60e51b81526004016105569061223c565b600083815260016020526040902060068101546301000000900460ff1661177e5760405162461bcd60e51b815260040161055690612310565b60018101546001600160a01b031633146117ea5760405162461bcd60e51b815260206004820152602760248201527f4f6e6c792064657369676e617465642074616b65722063616e2066756e6420746044820152661a19481919585b60ca1b6064820152608401610556565b6117f3836116e5565b61180f5760405162461bcd60e51b81526004016105569061228d565b60028101546001600160a01b0384811691161461183e5760405162461bcd60e51b815260040161055690612264565b600681015460ff16156118895760405162461bcd60e51b81526020600482015260136024820152721119585b08185b1c9958591e48199d5b991959606a1b6044820152606401610556565b600082116118ca5760405162461bcd60e51b815260206004820152600e60248201526d125b9d985b1a5908185b5bdd5b9d60921b6044820152606401610556565b806004015481600301546118de91906122f7565b82111561193f5760405162461bcd60e51b815260206004820152602960248201527f416d6f756e7420657863656564732072656d61696e696e672072657175657374604482015268195908185b5bdd5b9d60ba1b6064820152608401610556565b6040516323b872dd60e01b8152336004820152306024820152604481018390526001600160a01b038416906323b872dd906064016020604051808303816000875af1158015611992573d6000803e3d6000fd5b505050506040513d601f19601f820116820180604052508101906119b691906122c4565b50818160040160008282546119cb919061233a565b909155505060038101546004820154036119ef5760068101805460ff191660011790555b60048101546040805186815260208101859052908101919091527f1446f61b97fda95328384c4af588100f3495f0a9f6e200db780569f6e392be32906060016109fd565b611a3b611c3b565b611a43611c7e565b611a4c826116e5565b611a685760405162461bcd60e51b81526004016105569061228d565b60408051610140810182523381526001600160a01b0385811660208084019182528683168486019081526060850187815260006080870181815260a0880182815260c0890183815260e08a01848152610100808c0186815260016101208e01818152885489529a8190529d87209c518d546001600160a01b0319908116918e16919091178e559a519d8d0180548c169e8d169e909e17909d55965160028c018054909a169a1699909917909755925160038901555160048801559051600587015592516006909501805494519651925161ffff1990951695151561ff00191695909517951515029490941763ffff00001916620100009415159490940263ff00000019169390931763010000009115159190910217905580549080611b8c8361234d565b9091555050600054604080519182523360208301526001600160a01b03858116838301528416606083015260808201839052517fc0dc858eb5e76db42fc22f698ea72b0028bc33dee3d481e9be61f0103b51bbd49181900360a00190a1610a1d600160008051602061236783398151915255565b611c08611cca565b6001600160a01b038116611c3257604051631e4fbdf760e01b815260006004820152602401610556565b610b8681611cfc565b7fcd5ed15c6e187e77e9aee88184c21f4f2182ab5827cb3b7e07fbedcd63f033005460ff1615610d295760405163d93c066560e01b815260040160405180910390fd5b600080516020612367833981519152805460011901611cb057604051633ee5aeb560e01b815260040160405180910390fd5b60029055565b600160008051602061236783398151915255565b33611cd36116b7565b6001600160a01b031614610d295760405163118cdaa760e01b8152336004820152602401610556565b7f9016d09d72d40fdae2fd8ceac6b6234c7706214fd39c1cd1e609a0528c19930080546001600160a01b031981166001600160a01b03848116918217845560405192169182907f8be0079c531659141344cd1fd0a4f28419497f9722a3daafe3b4186f6b6457e090600090a3505050565b611d75611d9e565b610b8681611de7565b611d86611d9e565b610d29611def565b611d96611d9e565b610d29611e22565b7ff0c57e16840df040f15088dc2f81fe391c3923bec73e23a9662efc9c229c6a0054600160401b900460ff16610d2957604051631afcd79f60e31b815260040160405180910390fd5b611c08611d9e565b611df7611d9e565b7fcd5ed15c6e187e77e9aee88184c21f4f2182ab5827cb3b7e07fbedcd63f03300805460ff19169055565b611cb6611d9e565b60008083601f840112611e3c57600080fd5b50813567ffffffffffffffff811115611e5457600080fd5b6020830191508360208260051b8501011115611e6f57600080fd5b9250929050565b60008060008060408587031215611e8c57600080fd5b843567ffffffffffffffff80821115611ea457600080fd5b611eb088838901611e2a565b90965094506020870135915080821115611ec957600080fd5b50611ed687828801611e2a565b95989497509550505050565b80356001600160a01b0381168114611ef957600080fd5b919050565b600080600060608486031215611f1357600080fd5b83359250611f2360208501611ee2565b9150604084013590509250925092565b600060208284031215611f4557600080fd5b5035919050565b8015158114610b8657600080fd5b60008060408385031215611f6d57600080fd5b611f7683611ee2565b91506020830135611f8681611f4c565b809150509250929050565b600060208284031215611fa357600080fd5b611fac82611ee2565b9392505050565b634e487b7160e01b600052604160045260246000fd5b600082601f830112611fda57600080fd5b8135602067ffffffffffffffff80831115611ff757611ff7611fb3565b8260051b604051601f19603f8301168101818110848211171561201c5761201c611fb3565b604052938452602081870181019490810192508785111561203c57600080fd5b6020870191505b848210156120635761205482611ee2565b83529183019190830190612043565b979650505050505050565b6000806040838503121561208157600080fd5b823567ffffffffffffffff8082111561209957600080fd5b6120a586838701611fc9565b935060208501359150808211156120bb57600080fd5b506120c885828601611fc9565b9150509250929050565b81516001600160a01b03168152610140810160208301516120fe60208401826001600160a01b03169052565b50604083015161211960408401826001600160a01b03169052565b50606083015160608301526080830151608083015260a083015160a083015260c083015161214b60c084018215159052565b5060e083015161215f60e084018215159052565b5061010083810151151590830152610120928301511515929091019190915290565b6000806040838503121561219457600080fd5b823591506020830135611f8681611f4c565b6000806000606084860312156121bb57600080fd5b6121c484611ee2565b9250611f2360208501611ee2565b60208082526019908201527f43616c6c6572206973206e6f742077686974656c697374656400000000000000604082015260600190565b634e487b7160e01b600052603260045260246000fd5b60006020828403121561223157600080fd5b8135611fac81611f4c565b6020808252600e908201526d1119585b081b9bdd08199bdd5b9960921b604082015260600190565b6020808252600f908201526e24b731b7b93932b1ba103a37b5b2b760891b604082015260600190565b60208082526018908201527f546f6b656e206973206e6f742077686974656c69737465640000000000000000604082015260600190565b6000602082840312156122d657600080fd5b8151611fac81611f4c565b634e487b7160e01b600052601160045260246000fd5b8181038181111561230a5761230a6122e1565b92915050565b60208082526010908201526f4465616c20697320696e61637469766560801b604082015260600190565b8082018082111561230a5761230a6122e1565b60006001820161235f5761235f6122e1565b506001019056fe9b779b17422d0df92223018b32b4d1fa46e071723d6817e2486d003becc55f00a264697066735822122078cbc6229c998f31ce71e713a5d22cde43ec1da49892c06e21f06ddf1414cd4c64736f6c63430008180033",
  "linkReferences": {},
  "deployedLinkReferences": {}
}