{
  "_format": "hh-sol-artifact-1",
  "contractName": "eHKD",
  "sourceName": "contracts/token/eHKD.sol",
  "abi": [
    {
      "inputs": [
        {
          "internalType": "address",
          "name": "_admin",
          "type": "address"
        },
        {
          "internalType": "address",
          "name": "_tokenVault",
          "type": "address"
        },
        {
          "internalType": "uint256",
          "name": "mintAmount",
          "type": "uint256"
        }
      ],
      "stateMutability": "nonpayable",
      "type": "constructor"
    },
    {
      "inputs": [
        {
          "internalType": "address",
          "name": "spender",
          "type": "address"
        },
        {
          "internalType": "uint256",
          "name": "allowance",
          "type": "uint256"
        },
        {
          "internalType": "uint256",
          "name": "needed",
          "type": "uint256"
        }
      ],
      "name": "ERC20InsufficientAllowance",
      "type": "error"
    },
    {
      "inputs": [
        {
          "internalType": "address",
          "name": "sender",
          "type": "address"
        },
        {
          "internalType": "uint256",
          "name": "balance",
          "type": "uint256"
        },
        {
          "internalType": "uint256",
          "name": "needed",
          "type": "uint256"
        }
      ],
      "name": "ERC20InsufficientBalance",
      "type": "error"
    },
    {
      "inputs": [
        {
          "internalType": "address",
          "name": "approver",
          "type": "address"
        }
      ],
      "name": "ERC20InvalidApprover",
      "type": "error"
    },
    {
      "inputs": [
        {
          "internalType": "address",
          "name": "receiver",
          "type": "address"
        }
      ],
      "name": "ERC20InvalidReceiver",
      "type": "error"
    },
    {
      "inputs": [
        {
          "internalType": "address",
          "name": "sender",
          "type": "address"
        }
      ],
      "name": "ERC20InvalidSender",
      "type": "error"
    },
    {
      "inputs": [
        {
          "internalType": "address",
          "name": "spender",
          "type": "address"
        }
      ],
      "name": "ERC20InvalidSpender",
      "type": "error"
    },
    {
      "anonymous": false,
      "inputs": [
        {
          "indexed": true,
          "internalType": "address",
          "name": "owner",
          "type": "address"
        },
        {
          "indexed": true,
          "internalType": "address",
          "name": "spender",
          "type": "address"
        },
        {
          "indexed": false,
          "internalType": "uint256",
          "name": "value",
          "type": "uint256"
        }
      ],
      "name": "Approval",
      "type": "event"
    },
    {
      "anonymous": false,
      "inputs": [
        {
          "indexed": true,
          "internalType": "address",
          "name": "from",
          "type": "address"
        },
        {
          "indexed": true,
          "internalType": "address",
          "name": "to",
          "type": "address"
        },
        {
          "indexed": false,
          "internalType": "uint256",
          "name": "value",
          "type": "uint256"
        }
      ],
      "name": "Transfer",
      "type": "event"
    },
    {
      "inputs": [],
      "name": "MAX_SUPPLY",
      "outputs": [
        {
          "internalType": "uint256",
          "name": "",
          "type": "uint256"
        }
      ],
      "stateMutability": "view",
      "type": "function"
    },
    {
      "inputs": [],
      "name": "admin",
      "outputs": [
        {
          "internalType": "address",
          "name": "",
          "type": "address"
        }
      ],
      "stateMutability": "view",
      "type": "function"
    },
    {
      "inputs": [
        {
          "internalType": "address",
          "name": "owner",
          "type": "address"
        },
        {
          "internalType": "address",
          "name": "spender",
          "type": "address"
        }
      ],
      "name": "allowance",
      "outputs": [
        {
          "internalType": "uint256",
          "name": "",
          "type": "uint256"
        }
      ],
      "stateMutability": "view",
      "type": "function"
    },
    {
      "inputs": [
        {
          "internalType": "address",
          "name": "spender",
          "type": "address"
        },
        {
          "internalType": "uint256",
          "name": "value",
          "type": "uint256"
        }
      ],
      "name": "approve",
      "outputs": [
        {
          "internalType": "bool",
          "name": "",
          "type": "bool"
        }
      ],
      "stateMutability": "nonpayable",
      "type": "function"
    },
    {
      "inputs": [
        {
          "internalType": "address",
          "name": "account",
          "type": "address"
        }
      ],
      "name": "balanceOf",
      "outputs": [
        {
          "internalType": "uint256",
          "name": "",
          "type": "uint256"
        }
      ],
      "stateMutability": "view",
      "type": "function"
    },
    {
      "inputs": [],
      "name": "decimals",
      "outputs": [
        {
          "internalType": "uint8",
          "name": "",
          "type": "uint8"
        }
      ],
      "stateMutability": "view",
      "type": "function"
    },
    {
      "inputs": [
        {
          "internalType": "uint256",
          "name": "amount",
          "type": "uint256"
        }
      ],
      "name": "mint",
      "outputs": [],
      "stateMutability": "nonpayable",
      "type": "function"
    },
    {
      "inputs": [],
      "name": "name",
      "outputs": [
        {
          "internalType": "string",
          "name": "",
          "type": "string"
        }
      ],
      "stateMutability": "view",
      "type": "function"
    },
    {
      "inputs": [],
      "name": "symbol",
      "outputs": [
        {
          "internalType": "string",
          "name": "",
          "type": "string"
        }
      ],
      "stateMutability": "view",
      "type": "function"
    },
    {
      "inputs": [],
      "name": "tokenVault",
      "outputs": [
        {
          "internalType": "address",
          "name": "",
          "type": "address"
        }
      ],
      "stateMutability": "view",
      "type": "function"
    },
    {
      "inputs": [],
      "name": "totalSupply",
      "outputs": [
        {
          "internalType": "uint256",
          "name": "",
          "type": "uint256"
        }
      ],
      "stateMutability": "view",
      "type": "function"
    },
    {
      "inputs": [
        {
          "internalType": "address",
          "name": "to",
          "type": "address"
        },
        {
          "internalType": "uint256",
          "name": "value",
          "type": "uint256"
        }
      ],
      "name": "transfer",
      "outputs": [
        {
          "internalType": "bool",
          "name": "",
          "type": "bool"
        }
      ],
      "stateMutability": "nonpayable",
      "type": "function"
    },
    {
      "inputs": [
        {
          "internalType": "address",
          "name": "_admin",
          "type": "address"
        }
      ],
      "name": "transferAdmin",
      "outputs": [],
      "stateMutability": "nonpayable",
      "type": "function"
    },
    {
      "inputs": [
        {
          "internalType": "address",
          "name": "from",
          "type": "address"
        },
        {
          "internalType": "address",
          "name": "to",
          "type": "address"
        },
        {
          "internalType": "uint256",
          "name": "value",
          "type": "uint256"
        }
      ],
      "name": "transferFrom",
      "outputs": [
        {
          "internalType": "bool",
          "name": "",
          "type": "bool"
        }
      ],
      "stateMutability": "nonpayable",
      "type": "function"
    },
    {
      "inputs": [
        {
          "internalType": "address",
          "name": "_tokenVault",
          "type": "address"
        }
      ],
      "name": "transferTokenVault",
      "outputs": [],
      "stateMutability": "nonpayable",
      "type": "function"
    }
  ],
  "bytecode": "0x60806040526b033b2e3c9fd0803ce80000006007553480156200002157600080fd5b5060405162000e7038038062000e708339810160408190526200004491620002c4565b604080518082018252600480825263195212d160e21b6020808401829052845180860190955291845290830152906003620000808382620003ac565b5060046200008f8282620003ac565b505050600754811115620000ea5760405162461bcd60e51b815260206004820152601e60248201527f4d696e7420616d6f756e742065786365656473206d617820737570706c79000060448201526064015b60405180910390fd5b600580546001600160a01b038086166001600160a01b031992831617909255600680549285169290911691909117905580156200012d576200012d828262000136565b505050620004a0565b6001600160a01b038216620001625760405163ec442f0560e01b815260006004820152602401620000e1565b620001706000838362000174565b5050565b6001600160a01b038316620001a357806002600082825462000197919062000478565b90915550620002179050565b6001600160a01b03831660009081526020819052604090205481811015620001f85760405163391434e360e21b81526001600160a01b03851660048201526024810182905260448101839052606401620000e1565b6001600160a01b03841660009081526020819052604090209082900390555b6001600160a01b038216620002355760028054829003905562000254565b6001600160a01b03821660009081526020819052604090208054820190555b816001600160a01b0316836001600160a01b03167fddf252ad1be2c89b69c2b068fc378daa952ba7f163c4a11628f55a4df523b3ef836040516200029a91815260200190565b60405180910390a3505050565b80516001600160a01b0381168114620002bf57600080fd5b919050565b600080600060608486031215620002da57600080fd5b620002e584620002a7565b9250620002f560208501620002a7565b9150604084015190509250925092565b634e487b7160e01b600052604160045260246000fd5b600181811c908216806200033057607f821691505b6020821081036200035157634e487b7160e01b600052602260045260246000fd5b50919050565b601f821115620003a7576000816000526020600020601f850160051c81016020861015620003825750805b601f850160051c820191505b81811015620003a3578281556001016200038e565b5050505b505050565b81516001600160401b03811115620003c857620003c862000305565b620003e081620003d984546200031b565b8462000357565b602080601f831160018114620004185760008415620003ff5750858301515b600019600386901b1c1916600185901b178555620003a3565b600085815260208120601f198616915b82811015620004495788860151825594840194600190910190840162000428565b5085821015620004685787850151600019600388901b60f8161c191681555b5050505050600190811b01905550565b808201808211156200049a57634e487b7160e01b600052601160045260246000fd5b92915050565b6109c080620004b06000396000f3fe608060405234801561001057600080fd5b50600436106100f55760003560e01c80636a117be511610097578063a0712d6811610066578063a0712d68146101fc578063a9059cbb1461020f578063dd62ed3e14610222578063f851a4401461025b57600080fd5b80636a117be5146101a357806370a08231146101b857806375829def146101e157806395d89b41146101f457600080fd5b806323b872dd116100d357806323b872dd1461014d578063313ce5671461016057806332cb6b0c1461016f5780635bc789d91461017857600080fd5b806306fdde03146100fa578063095ea7b31461011857806318160ddd1461013b575b600080fd5b61010261026e565b60405161010f91906107cc565b60405180910390f35b61012b610126366004610837565b610300565b604051901515815260200161010f565b6002545b60405190815260200161010f565b61012b61015b366004610861565b61031a565b6040516012815260200161010f565b61013f60075481565b60065461018b906001600160a01b031681565b6040516001600160a01b03909116815260200161010f565b6101b66101b136600461089d565b61033e565b005b61013f6101c636600461089d565b6001600160a01b031660009081526020819052604090205490565b6101b66101ef36600461089d565b610393565b6101026103df565b6101b661020a3660046108bf565b6103ee565b61012b61021d366004610837565b610496565b61013f6102303660046108d8565b6001600160a01b03918216600090815260016020908152604080832093909416825291909152205490565b60055461018b906001600160a01b031681565b60606003805461027d9061090b565b80601f01602080910402602001604051908101604052809291908181526020018280546102a99061090b565b80156102f65780601f106102cb576101008083540402835291602001916102f6565b820191906000526020600020905b8154815290600101906020018083116102d957829003601f168201915b5050505050905090565b60003361030e8185856104a4565b60019150505b92915050565b6000336103288582856104b6565b610333858585610534565b506001949350505050565b6005546001600160a01b031633146103715760405162461bcd60e51b815260040161036890610945565b60405180910390fd5b600680546001600160a01b0319166001600160a01b0392909216919091179055565b6005546001600160a01b031633146103bd5760405162461bcd60e51b815260040161036890610945565b600580546001600160a01b0319166001600160a01b0392909216919091179055565b60606004805461027d9061090b565b6005546001600160a01b031633146104185760405162461bcd60e51b815260040161036890610945565b6007548161042560025490565b61042f9190610969565b111561047d5760405162461bcd60e51b815260206004820152601a60248201527f4d696e74696e672065786365656473206d617820737570706c790000000000006044820152606401610368565b600654610493906001600160a01b031682610593565b50565b60003361030e818585610534565b6104b183838360016105cd565b505050565b6001600160a01b03838116600090815260016020908152604080832093861683529290522054600019811461052e578181101561051f57604051637dc7a0d960e11b81526001600160a01b03841660048201526024810182905260448101839052606401610368565b61052e848484840360006105cd565b50505050565b6001600160a01b03831661055e57604051634b637e8f60e11b815260006004820152602401610368565b6001600160a01b0382166105885760405163ec442f0560e01b815260006004820152602401610368565b6104b18383836106a2565b6001600160a01b0382166105bd5760405163ec442f0560e01b815260006004820152602401610368565b6105c9600083836106a2565b5050565b6001600160a01b0384166105f75760405163e602df0560e01b815260006004820152602401610368565b6001600160a01b03831661062157604051634a1406b160e11b815260006004820152602401610368565b6001600160a01b038085166000908152600160209081526040808320938716835292905220829055801561052e57826001600160a01b0316846001600160a01b03167f8c5be1e5ebec7d5bd14f71427d1e84f3dd0314c0f7b2291e5b200ac8c7c3b9258460405161069491815260200190565b60405180910390a350505050565b6001600160a01b0383166106cd5780600260008282546106c29190610969565b9091555061073f9050565b6001600160a01b038316600090815260208190526040902054818110156107205760405163391434e360e21b81526001600160a01b03851660048201526024810182905260448101839052606401610368565b6001600160a01b03841660009081526020819052604090209082900390555b6001600160a01b03821661075b5760028054829003905561077a565b6001600160a01b03821660009081526020819052604090208054820190555b816001600160a01b0316836001600160a01b03167fddf252ad1be2c89b69c2b068fc378daa952ba7f163c4a11628f55a4df523b3ef836040516107bf91815260200190565b60405180910390a3505050565b60006020808352835180602085015260005b818110156107fa578581018301518582016040015282016107de565b506000604082860101526040601f19601f8301168501019250505092915050565b80356001600160a01b038116811461083257600080fd5b919050565b6000806040838503121561084a57600080fd5b6108538361081b565b946020939093013593505050565b60008060006060848603121561087657600080fd5b61087f8461081b565b925061088d6020850161081b565b9150604084013590509250925092565b6000602082840312156108af57600080fd5b6108b88261081b565b9392505050565b6000602082840312156108d157600080fd5b5035919050565b600080604083850312156108eb57600080fd5b6108f48361081b565b91506109026020840161081b565b90509250929050565b600181811c9082168061091f57607f821691505b60208210810361093f57634e487b7160e01b600052602260045260246000fd5b50919050565b6020808252600a908201526937b7363c9030b236b4b760b11b604082015260600190565b8082018082111561031457634e487b7160e01b600052601160045260246000fdfea264697066735822122091ba3f876a531ceb7b265b9c19696c8272be5ebe367d129edb7f54d9000407c864736f6c63430008180033",
  "linkReferences": {},
  "deployedLinkReferences": {}
}