{
  "_format": "hh-sol-artifact-1",
  "contractName": "RentalEscrow",
  "sourceName": "contracts/rentalEscrow/RentalEscrow.sol",
  "abi": [
    {
      "inputs": [],
      "name": "EnforcedPause",
      "type": "error"
    },
    {
      "inputs": [],
      "name": "ExpectedPause",
      "type": "error"
    },
    {
      "inputs": [],
      "name": "InvalidInitialization",
      "type": "error"
    },
    {
      "inputs": [],
      "name": "NotInitializing",
      "type": "error"
    },
    {
      "inputs": [
        {
          "internalType": "address",
          "name": "owner",
          "type": "address"
        }
      ],
      "name": "OwnableInvalidOwner",
      "type": "error"
    },
    {
      "inputs": [
        {
          "internalType": "address",
          "name": "account",
          "type": "address"
        }
      ],
      "name": "OwnableUnauthorizedAccount",
      "type": "error"
    },
    {
      "inputs": [],
      "name": "ReentrancyGuardReentrantCall",
      "type": "error"
    },
    {
      "anonymous": false,
      "inputs": [
        {
          "indexed": false,
          "internalType": "uint256",
          "name": "dealId",
          "type": "uint256"
        }
      ],
      "name": "DealClosed",
      "type": "event"
    },
    {
      "anonymous": false,
      "inputs": [
        {
          "indexed": false,
          "internalType": "uint256",
          "name": "dealId",
          "type": "uint256"
        },
        {
          "indexed": false,
          "internalType": "address",
          "name": "payee",
          "type": "address"
        },
        {
          "indexed": false,
          "internalType": "address",
          "name": "payer",
          "type": "address"
        },
        {
          "indexed": false,
          "internalType": "address",
          "name": "token",
          "type": "address"
        },
        {
          "indexed": false,
          "internalType": "uint256",
          "name": "amount",
          "type": "uint256"
        }
      ],
      "name": "DealCreated",
      "type": "event"
    },
    {
      "anonymous": false,
      "inputs": [
        {
          "indexed": false,
          "internalType": "uint64",
          "name": "version",
          "type": "uint64"
        }
      ],
      "name": "Initialized",
      "type": "event"
    },
    {
      "anonymous": false,
      "inputs": [
        {
          "indexed": true,
          "internalType": "address",
          "name": "previousOwner",
          "type": "address"
        },
        {
          "indexed": true,
          "internalType": "address",
          "name": "newOwner",
          "type": "address"
        }
      ],
      "name": "OwnershipTransferred",
      "type": "event"
    },
    {
      "anonymous": false,
      "inputs": [
        {
          "indexed": false,
          "internalType": "address",
          "name": "account",
          "type": "address"
        }
      ],
      "name": "Paused",
      "type": "event"
    },
    {
      "anonymous": false,
      "inputs": [
        {
          "indexed": false,
          "internalType": "uint256",
          "name": "dealId",
          "type": "uint256"
        },
        {
          "indexed": false,
          "internalType": "uint256",
          "name": "amount",
          "type": "uint256"
        },
        {
          "indexed": false,
          "internalType": "uint256",
          "name": "totalReleasedAmount",
          "type": "uint256"
        }
      ],
      "name": "PayeeReleasedFund",
      "type": "event"
    },
    {
      "anonymous": false,
      "inputs": [
        {
          "indexed": false,
          "internalType": "uint256",
          "name": "dealId",
          "type": "uint256"
        },
        {
          "indexed": false,
          "internalType": "bool",
          "name": "isPayeeCanReleaseFund",
          "type": "bool"
        }
      ],
      "name": "PayerApprovedFundRelease",
      "type": "event"
    },
    {
      "anonymous": false,
      "inputs": [
        {
          "indexed": false,
          "internalType": "uint256",
          "name": "dealId",
          "type": "uint256"
        },
        {
          "indexed": false,
          "internalType": "uint256",
          "name": "amount",
          "type": "uint256"
        },
        {
          "indexed": false,
          "internalType": "uint256",
          "name": "remainingSettledAmount",
          "type": "uint256"
        }
      ],
      "name": "PayerRetrievedFund",
      "type": "event"
    },
    {
      "anonymous": false,
      "inputs": [
        {
          "indexed": false,
          "internalType": "uint256",
          "name": "dealId",
          "type": "uint256"
        },
        {
          "indexed": false,
          "internalType": "uint256",
          "name": "amount",
          "type": "uint256"
        },
        {
          "indexed": false,
          "internalType": "uint256",
          "name": "totalSettledAmount",
          "type": "uint256"
        }
      ],
      "name": "PayerSettled",
      "type": "event"
    },
    {
      "anonymous": false,
      "inputs": [
        {
          "indexed": false,
          "internalType": "address",
          "name": "account",
          "type": "address"
        }
      ],
      "name": "Unpaused",
      "type": "event"
    },
    {
      "inputs": [
        {
          "internalType": "address",
          "name": "_addr",
          "type": "address"
        },
        {
          "internalType": "bool",
          "name": "_isWhitelisted",
          "type": "bool"
        }
      ],
      "name": "addWhitelist",
      "outputs": [],
      "stateMutability": "nonpayable",
      "type": "function"
    },
    {
      "inputs": [
        {
          "internalType": "address",
          "name": "_addr",
          "type": "address"
        },
        {
          "internalType": "bool",
          "name": "_isWhitelisted",
          "type": "bool"
        }
      ],
      "name": "addWhitelistedToken",
      "outputs": [],
      "stateMutability": "nonpayable",
      "type": "function"
    },
    {
      "inputs": [
        {
          "internalType": "address[]",
          "name": "_addrs",
          "type": "address[]"
        },
        {
          "internalType": "bool[]",
          "name": "_isWhitelisted",
          "type": "bool[]"
        }
      ],
      "name": "addWhitelistedTokens",
      "outputs": [],
      "stateMutability": "nonpayable",
      "type": "function"
    },
    {
      "inputs": [
        {
          "internalType": "address[]",
          "name": "_addrs",
          "type": "address[]"
        },
        {
          "internalType": "bool[]",
          "name": "_isWhitelisted",
          "type": "bool[]"
        }
      ],
      "name": "addWhitelists",
      "outputs": [],
      "stateMutability": "nonpayable",
      "type": "function"
    },
    {
      "inputs": [
        {
          "internalType": "uint256",
          "name": "dealId",
          "type": "uint256"
        }
      ],
      "name": "canPayeeReleaseFund",
      "outputs": [
        {
          "internalType": "bool",
          "name": "",
          "type": "bool"
        }
      ],
      "stateMutability": "view",
      "type": "function"
    },
    {
      "inputs": [
        {
          "internalType": "uint256",
          "name": "_dealId",
          "type": "uint256"
        }
      ],
      "name": "closeDeal",
      "outputs": [],
      "stateMutability": "nonpayable",
      "type": "function"
    },
    {
      "inputs": [
        {
          "internalType": "uint256",
          "name": "_dealId",
          "type": "uint256"
        },
        {
          "internalType": "address",
          "name": "_token",
          "type": "address"
        },
        {
          "internalType": "uint256",
          "name": "_amount",
          "type": "uint256"
        }
      ],
      "name": "fundDeal",
      "outputs": [],
      "stateMutability": "nonpayable",
      "type": "function"
    },
    {
      "inputs": [
        {
          "internalType": "uint256",
          "name": "_dealId",
          "type": "uint256"
        }
      ],
      "name": "getDeal",
      "outputs": [
        {
          "components": [
            {
              "internalType": "address",
              "name": "payee",
              "type": "address"
            },
            {
              "internalType": "address",
              "name": "payer",
              "type": "address"
            },
            {
              "internalType": "address",
              "name": "token",
              "type": "address"
            },
            {
              "internalType": "uint256",
              "name": "requestedAmount",
              "type": "uint256"
            },
            {
              "internalType": "uint256",
              "name": "settledAmount",
              "type": "uint256"
            },
            {
              "internalType": "uint256",
              "name": "releasedAmount",
              "type": "uint256"
            },
            {
              "internalType": "bool",
              "name": "isPayeeCanReleaseFund",
              "type": "bool"
            },
            {
              "internalType": "bool",
              "name": "isActive",
              "type": "bool"
            }
          ],
          "internalType": "struct IRentalEscrow.Deal",
          "name": "",
          "type": "tuple"
        }
      ],
      "stateMutability": "view",
      "type": "function"
    },
    {
      "inputs": [],
      "name": "getDealCounter",
      "outputs": [
        {
          "internalType": "uint256",
          "name": "",
          "type": "uint256"
        }
      ],
      "stateMutability": "view",
      "type": "function"
    },
    {
      "inputs": [
        {
          "internalType": "uint256",
          "name": "dealId",
          "type": "uint256"
        }
      ],
      "name": "getPayee",
      "outputs": [
        {
          "internalType": "address",
          "name": "",
          "type": "address"
        }
      ],
      "stateMutability": "view",
      "type": "function"
    },
    {
      "inputs": [
        {
          "internalType": "uint256",
          "name": "dealId",
          "type": "uint256"
        }
      ],
      "name": "getPayer",
      "outputs": [
        {
          "internalType": "address",
          "name": "",
          "type": "address"
        }
      ],
      "stateMutability": "view",
      "type": "function"
    },
    {
      "inputs": [
        {
          "internalType": "uint256",
          "name": "dealId",
          "type": "uint256"
        }
      ],
      "name": "getReleasedAmount",
      "outputs": [
        {
          "internalType": "uint256",
          "name": "",
          "type": "uint256"
        }
      ],
      "stateMutability": "view",
      "type": "function"
    },
    {
      "inputs": [
        {
          "internalType": "uint256",
          "name": "dealId",
          "type": "uint256"
        }
      ],
      "name": "getRequestedAmount",
      "outputs": [
        {
          "internalType": "uint256",
          "name": "",
          "type": "uint256"
        }
      ],
      "stateMutability": "view",
      "type": "function"
    },
    {
      "inputs": [
        {
          "internalType": "uint256",
          "name": "dealId",
          "type": "uint256"
        }
      ],
      "name": "getSettledAmount",
      "outputs": [
        {
          "internalType": "uint256",
          "name": "",
          "type": "uint256"
        }
      ],
      "stateMutability": "view",
      "type": "function"
    },
    {
      "inputs": [
        {
          "internalType": "uint256",
          "name": "dealId",
          "type": "uint256"
        }
      ],
      "name": "getToken",
      "outputs": [
        {
          "internalType": "address",
          "name": "",
          "type": "address"
        }
      ],
      "stateMutability": "view",
      "type": "function"
    },
    {
      "inputs": [
        {
          "internalType": "address[]",
          "name": "_whitelisted",
          "type": "address[]"
        },
        {
          "internalType": "address[]",
          "name": "_whitelistedTokens",
          "type": "address[]"
        }
      ],
      "name": "initialize",
      "outputs": [],
      "stateMutability": "nonpayable",
      "type": "function"
    },
    {
      "inputs": [
        {
          "internalType": "uint256",
          "name": "dealId",
          "type": "uint256"
        }
      ],
      "name": "isActive",
      "outputs": [
        {
          "internalType": "bool",
          "name": "",
          "type": "bool"
        }
      ],
      "stateMutability": "view",
      "type": "function"
    },
    {
      "inputs": [
        {
          "internalType": "uint256",
          "name": "dealId",
          "type": "uint256"
        }
      ],
      "name": "isFundFullyReleasedToPayee",
      "outputs": [
        {
          "internalType": "bool",
          "name": "",
          "type": "bool"
        }
      ],
      "stateMutability": "view",
      "type": "function"
    },
    {
      "inputs": [
        {
          "internalType": "uint256",
          "name": "dealId",
          "type": "uint256"
        }
      ],
      "name": "isPayerFullySettled",
      "outputs": [
        {
          "internalType": "bool",
          "name": "",
          "type": "bool"
        }
      ],
      "stateMutability": "view",
      "type": "function"
    },
    {
      "inputs": [
        {
          "internalType": "address",
          "name": "_token",
          "type": "address"
        }
      ],
      "name": "isTokenWhitelisted",
      "outputs": [
        {
          "internalType": "bool",
          "name": "",
          "type": "bool"
        }
      ],
      "stateMutability": "view",
      "type": "function"
    },
    {
      "inputs": [
        {
          "internalType": "address",
          "name": "addr",
          "type": "address"
        }
      ],
      "name": "isWhitelisted",
      "outputs": [
        {
          "internalType": "bool",
          "name": "",
          "type": "bool"
        }
      ],
      "stateMutability": "view",
      "type": "function"
    },
    {
      "inputs": [
        {
          "internalType": "address",
          "name": "_payer",
          "type": "address"
        },
        {
          "internalType": "address",
          "name": "_token",
          "type": "address"
        },
        {
          "internalType": "uint256",
          "name": "_requestedAmount",
          "type": "uint256"
        }
      ],
      "name": "openDeal",
      "outputs": [],
      "stateMutability": "nonpayable",
      "type": "function"
    },
    {
      "inputs": [],
      "name": "owner",
      "outputs": [
        {
          "internalType": "address",
          "name": "",
          "type": "address"
        }
      ],
      "stateMutability": "view",
      "type": "function"
    },
    {
      "inputs": [],
      "name": "paused",
      "outputs": [
        {
          "internalType": "bool",
          "name": "",
          "type": "bool"
        }
      ],
      "stateMutability": "view",
      "type": "function"
    },
    {
      "inputs": [
        {
          "internalType": "uint256",
          "name": "_dealId",
          "type": "uint256"
        },
        {
          "internalType": "address",
          "name": "_token",
          "type": "address"
        },
        {
          "internalType": "uint256",
          "name": "_amount",
          "type": "uint256"
        }
      ],
      "name": "releaseFunds",
      "outputs": [],
      "stateMutability": "nonpayable",
      "type": "function"
    },
    {
      "inputs": [],
      "name": "renounceOwnership",
      "outputs": [],
      "stateMutability": "nonpayable",
      "type": "function"
    },
    {
      "inputs": [
        {
          "internalType": "uint256",
          "name": "_dealId",
          "type": "uint256"
        },
        {
          "internalType": "address",
          "name": "_token",
          "type": "address"
        },
        {
          "internalType": "uint256",
          "name": "_amount",
          "type": "uint256"
        }
      ],
      "name": "retrieveFunds",
      "outputs": [],
      "stateMutability": "nonpayable",
      "type": "function"
    },
    {
      "inputs": [
        {
          "internalType": "uint256",
          "name": "_dealId",
          "type": "uint256"
        },
        {
          "internalType": "bool",
          "name": "value",
          "type": "bool"
        }
      ],
      "name": "setIsPayeeCanReleaseFund",
      "outputs": [],
      "stateMutability": "nonpayable",
      "type": "function"
    },
    {
      "inputs": [
        {
          "internalType": "address",
          "name": "newOwner",
          "type": "address"
        }
      ],
      "name": "transferOwnership",
      "outputs": [],
      "stateMutability": "nonpayable",
      "type": "function"
    }
  ],
  "bytecode": "0x608060405234801561001057600080fd5b506122c1806100206000396000f3fe608060405234801561001057600080fd5b50600436106101cf5760003560e01c806373cf25f811610104578063b5af090f116100a2578063e4b50cb811610071578063e4b50cb8146104b9578063ecab443f146104e5578063f2fde38b14610508578063fb722d561461051b57600080fd5b8063b5af090f14610457578063c6bf0e1c1461046a578063d13136fd1461047d578063e12f5bfe146104a657600080fd5b806382fd5bac116100de57806382fd5bac146103ad5780638cd7d830146103cd5780638da5cb5b146103f05780639ea4eab31461043457600080fd5b806373cf25f81461035c57806374c95f4e1461036f57806382afd23b1461038257600080fd5b80633714020e116101715780635856809e1161014b5780635856809e146102ec5780635c975abb146102ff5780635df28df014610329578063715018a61461035457600080fd5b80633714020e1461029b5780633af32abf146102ae578063439138fd146102da57600080fd5b8063319af8f5116101ad578063319af8f514610237578063344952f11461024a57806334d99a8d1461025d578063366023351461027057600080fd5b80630a6a0b5c146101d45780631383ba161461020f5780632398991414610224575b600080fd5b6101fa6101e2366004611d6b565b60009081526001602052604090206006015460ff1690565b60405190151581526020015b60405180910390f35b61022261021d366004611dd0565b610548565b005b610222610232366004611e4a565b610614565b610222610245366004611dd0565b61082f565b610222610258366004611e96565b6108eb565b61022261026b366004611d6b565b610c7a565b6101fa61027e366004611d6b565b600090815260016020526040902060038101546005909101541490565b6102226102a9366004611ecb565b610ddd565b6101fa6102bc366004611ef7565b6001600160a01b031660009081526002602052604090205460ff1690565b6000545b604051908152602001610206565b6102226102fa366004611ecb565b610ea4565b7fcd5ed15c6e187e77e9aee88184c21f4f2182ab5827cb3b7e07fbedcd63f033005460ff166101fa565b6101fa610337366004611d6b565b600090815260016020526040902060038101546004909101541490565b610222610f6b565b61022261036a366004611fd4565b610f7f565b61022261037d366004611e96565b611178565b6101fa610390366004611d6b565b600090815260016020526040902060060154610100900460ff1690565b6103c06103bb366004611d6b565b6115df565b6040516102069190612038565b6102de6103db366004611d6b565b60009081526001602052604090206003015490565b7f9016d09d72d40fdae2fd8ceac6b6234c7706214fd39c1cd1e609a0528c199300546001600160a01b03165b6040516001600160a01b039091168152602001610206565b6102de610442366004611d6b565b60009081526001602052604090206004015490565b6101fa610465366004611ef7565b6116a8565b610222610478366004611e96565b6116c6565b61041c61048b366004611d6b565b6000908152600160205260409020546001600160a01b031690565b6102226104b43660046120ab565b61198a565b61041c6104c7366004611d6b565b6000908152600160205260409020600201546001600160a01b031690565b6102de6104f3366004611d6b565b60009081526001602052604090206005015490565b610222610516366004611ef7565b611b18565b61041c610529366004611d6b565b600090815260016020819052604090912001546001600160a01b031690565b3360009081526002602052604090205460ff166105805760405162461bcd60e51b8152600401610577906120d7565b60405180910390fd5b60005b8381101561060d5782828281811061059d5761059d61210e565b90506020020160208101906105b29190612124565b600260008787858181106105c8576105c861210e565b90506020020160208101906105dd9190611ef7565b6001600160a01b031681526020810191909152604001600020805460ff1916911515919091179055600101610583565b5050505050565b61061c611b53565b610624611b96565b600061062f836115df565b516001600160a01b0316036106565760405162461bcd60e51b815260040161057790612141565b60008281526001602052604090206006810154610100900460ff1661068d5760405162461bcd60e51b815260040161057790612169565b60018101546001600160a01b031633146107005760405162461bcd60e51b815260206004820152602e60248201527f4f6e6c792064657369676e617465642070617965722063616e20617070726f7660448201526d652066756e642072656c6561736560901b6064820152608401610577565b81156107c65760008160040154116107655760405162461bcd60e51b815260206004820152602260248201527f506179657220686176656e277420736574746c656420616e792066756e642079604482015261195d60f21b6064820152608401610577565b600681015460ff16156107c65760405162461bcd60e51b815260206004820152602360248201527f506179657220616c726561647920617070726f7665642066756e642072656c6560448201526261736560e81b6064820152608401610577565b60068101805460ff19168315159081179091556040805185815260208101929092527f8a17b681fe1737869941df09af30df87fec06f504c792e4e06b4ef8129d28d9a910160405180910390a15061082b600160008051602061226c83398151915255565b5050565b3360009081526002602052604090205460ff1661085e5760405162461bcd60e51b8152600401610577906120d7565b60005b8381101561060d5782828281811061087b5761087b61210e565b90506020020160208101906108909190612124565b600360008787858181106108a6576108a661210e565b90506020020160208101906108bb9190611ef7565b6001600160a01b031681526020810191909152604001600020805460ff1916911515919091179055600101610861565b6108f3611b53565b6108fb611b96565b6000610906846115df565b516001600160a01b03160361092d5760405162461bcd60e51b815260040161057790612141565b60008381526001602052604090206006810154610100900460ff161561098c5760405162461bcd60e51b81526020600482015260146024820152734465616c206973207374696c6c2061637469766560601b6044820152606401610577565b60018101546001600160a01b03163314610a015760405162461bcd60e51b815260206004820152603060248201527f4f6e6c792064657369676e617465642070617965722063616e2063616c6c207460448201526f6f2072657472696576652066756e647360801b6064820152608401610577565b60028101546001600160a01b03848116911614610a305760405162461bcd60e51b815260040161057790612193565b610a39836116a8565b610a555760405162461bcd60e51b8152600401610577906121bc565b600081600501548260040154610a6b9190612209565b11610ab85760405162461bcd60e51b815260206004820152601b60248201527f4e6f20736574746c656420616d6f756e742072656d61696e696e6700000000006044820152606401610577565b60008211610b015760405162461bcd60e51b8152602060048201526016602482015275125b9d985b1a59081c995c5d595cdd08185b5bdd5b9d60521b6044820152606401610577565b80600501548160040154610b159190612209565b821115610b8a5760405162461bcd60e51b815260206004820152603b60248201527f43616e6e6f7420726574726965766520616d6f756e742068696768657220746860448201527f616e2072656d61696e696e6720736574746c656420616d6f756e7400000000006064820152608401610577565b60405163a9059cbb60e01b8152336004820152602481018390526001600160a01b0384169063a9059cbb906044016020604051808303816000875af1158015610bd7573d6000803e3d6000fd5b505050506040513d601f19601f82011682018060405250810190610bfb9190612222565b5081816004016000828254610c109190612209565b909155505060048101546040805186815260208101859052908101919091527fc1795c4018021b3ab5432c95be6b3c4955478c3ce676b7c7e52a31a95e397960906060015b60405180910390a150610c75600160008051602061226c83398151915255565b505050565b610c82611b53565b610c8a611b96565b6000610c95826115df565b516001600160a01b031603610cbc5760405162461bcd60e51b815260040161057790612141565b60008181526001602052604090206006810154610100900460ff16610d185760405162461bcd60e51b81526020600482015260126024820152714465616c206973206e6f742061637469766560701b6044820152606401610577565b80546001600160a01b03163314610d825760405162461bcd60e51b815260206004820152602860248201527f4f6e6c792064657369676e617465642070617965652063616e20636c6f7365206044820152671d1a19481919585b60c21b6064820152608401610577565b60068101805461ff00191690556040518281527fb0f2e6b073efd0dc79dfbeb0e9a1e324fd70506f44f6d2b63301d17deebaeada9060200160405180910390a150610dda600160008051602061226c83398151915255565b50565b3360009081526002602052604090205460ff16610e0c5760405162461bcd60e51b8152600401610577906120d7565b80610e79576001600160a01b03821660009081526002602052604090205460ff16610e795760405162461bcd60e51b815260206004820152601e60248201527f41646472657373206e6f7420666f756e6420696e2077686974656c69737400006044820152606401610577565b6001600160a01b03919091166000908152600260205260409020805460ff1916911515919091179055565b3360009081526002602052604090205460ff16610ed35760405162461bcd60e51b8152600401610577906120d7565b80610f4057610ee1826116a8565b610f405760405162461bcd60e51b815260206004820152602a60248201527f546f6b656e2061646472657373206e6f7420666f756e6420696e20746f6b656e604482015269081dda1a5d195b1a5cdd60b21b6064820152608401610577565b6001600160a01b03919091166000908152600360205260409020805460ff1916911515919091179055565b610f73611be2565b610f7d6000611c3d565b565b7ff0c57e16840df040f15088dc2f81fe391c3923bec73e23a9662efc9c229c6a008054600160401b810460ff16159067ffffffffffffffff16600081158015610fc55750825b905060008267ffffffffffffffff166001148015610fe25750303b155b905081158015610ff0575080155b1561100e5760405163f92ee8a960e01b815260040160405180910390fd5b845467ffffffffffffffff19166001178555831561103857845460ff60401b1916600160401b1785555b61104133611cae565b611049611cbf565b611051611ccf565b6000808055338152600260205260408120805460ff191660011790555b87518110156110c9576001600260008a848151811061108f5761108f61210e565b6020908102919091018101516001600160a01b03168252810191909152604001600020805460ff191691151591909117905560010161106e565b5060005b8651811015611128576001600360008984815181106110ee576110ee61210e565b6020908102919091018101516001600160a01b03168252810191909152604001600020805460ff19169115159190911790556001016110cd565b50831561116f57845460ff60401b19168555604051600181527fc7f505b2f371ae2175ee4913f4499e1f2633a7b5936321eed1cdaeb6115181d29060200160405180910390a15b50505050505050565b611180611b53565b611188611b96565b6000611193846115df565b516001600160a01b0316036111ba5760405162461bcd60e51b815260040161057790612141565b60008381526001602052604090206006810154610100900460ff166111f15760405162461bcd60e51b815260040161057790612169565b60008481526001602052604090206003810154600590910154036112635760405162461bcd60e51b8152602060048201526024808201527f46756e6420616c72656164792066756c6c792072656c656173656420746f20706044820152636179656560e01b6064820152608401610577565b80546001600160a01b031633146112d45760405162461bcd60e51b815260206004820152602f60248201527f4f6e6c792064657369676e617465642070617965652063616e2063616c6c207460448201526e6f2072656c656173652066756e647360881b6064820152608401610577565b60028101546001600160a01b038481169116146113035760405162461bcd60e51b815260040161057790612193565b61130c836116a8565b6113285760405162461bcd60e51b8152600401610577906121bc565b600681015460ff166113875760405162461bcd60e51b815260206004820152602260248201527f46756e642072656c65617365206e6f7420617070726f7665642062792070617960448201526132b960f11b6064820152608401610577565b600082116113d05760405162461bcd60e51b8152602060048201526016602482015275125b9d985b1a59081c995c5d595cdd08185b5bdd5b9d60521b6044820152606401610577565b806005015481600301546113e49190612209565b8211156114595760405162461bcd60e51b815260206004820152603c60248201527f43616e6e6f742072656c6561736520616d6f756e74206869676865722074686160448201527f6e2072656d61696e696e672072657175657374656420616d6f756e74000000006064820152608401610577565b8060050154816004015461146d9190612209565b8211156114ee5760405162461bcd60e51b815260206004820152604360248201527f43616e6e6f742072656c6561736520616d6f756e74206869676865722074686160448201527f6e20616d6f756e7420736574746c65642062792070617965722072656d61696e606482015262696e6760e81b608482015260a401610577565b805460405163a9059cbb60e01b81526001600160a01b039182166004820152602481018490529084169063a9059cbb906044016020604051808303816000875af1158015611540573d6000803e3d6000fd5b505050506040513d601f19601f820116820180604052508101906115649190612222565b5081816005016000828254611579919061223f565b9091555050600381015460058201540361159b5760068101805461ff00191690555b60058101546040805186815260208101859052908101919091527f9da345d25c047217eeeddbca46191668b6a1dc727b0efadc0bdf2f2937eb3df890606001610c55565b6040805161010081018252600080825260208201819052918101829052606081018290526080810182905260a0810182905260c0810182905260e0810191909152506000908152600160208181526040928390208351610100808201865282546001600160a01b039081168352948301548516938201939093526002820154909316938301939093526003830154606083015260048301546080830152600583015460a083015260069092015460ff808216151560c0840152929004909116151560e082015290565b6001600160a01b031660009081526003602052604090205460ff1690565b6116ce611b53565b6116d6611b96565b60006116e1846115df565b516001600160a01b0316036117085760405162461bcd60e51b815260040161057790612141565b60008381526001602052604090206006810154610100900460ff1661173f5760405162461bcd60e51b815260040161057790612169565b60018101546001600160a01b031633146117ab5760405162461bcd60e51b815260206004820152602760248201527f4f6e6c792064657369676e617465642070617965722063616e2066756e6420746044820152661a19481919585b60ca1b6064820152608401610577565b6117b4836116a8565b6117d05760405162461bcd60e51b8152600401610577906121bc565b60028101546001600160a01b038481169116146117ff5760405162461bcd60e51b815260040161057790612193565b600082116118405760405162461bcd60e51b815260206004820152600e60248201526d125b9d985b1a5908185b5bdd5b9d60921b6044820152606401610577565b806004015481600301546118549190612209565b8211156118b55760405162461bcd60e51b815260206004820152602960248201527f416d6f756e7420657863656564732072656d61696e696e672072657175657374604482015268195908185b5bdd5b9d60ba1b6064820152608401610577565b6040516323b872dd60e01b8152336004820152306024820152604481018390526001600160a01b038416906323b872dd906064016020604051808303816000875af1158015611908573d6000803e3d6000fd5b505050506040513d601f19601f8201168201806040525081019061192c9190612222565b5081816004016000828254611941919061223f565b909155505060048101546040805186815260208101859052908101919091527f4cc430dd41a60ebd721d8922723df3e2fd8bc3073e41e4b7d3a78b6448d3948f90606001610c55565b611992611b53565b61199a611b96565b6119a3826116a8565b6119bf5760405162461bcd60e51b8152600401610577906121bc565b6040805161010080820183523382526001600160a01b0386811660208085019182528783168587019081526060860188815260006080880181815260a0890182815260c08a01838152600160e08c0181815285548652978190529b84209a518b546001600160a01b0319908116918b16919091178c5597519b8b01805489169c8a169c909c17909b55935160028a0180549097169716969096179094555160038701559251600486015591516005850155935160069093018054915161ffff1990921693151561ff0019169390931790151590910217905580549080611aa483612252565b9091555050600054604080519182523360208301526001600160a01b03858116838301528416606083015260808201839052517fc0dc858eb5e76db42fc22f698ea72b0028bc33dee3d481e9be61f0103b51bbd49181900360a00190a1610c75600160008051602061226c83398151915255565b611b20611be2565b6001600160a01b038116611b4a57604051631e4fbdf760e01b815260006004820152602401610577565b610dda81611c3d565b7fcd5ed15c6e187e77e9aee88184c21f4f2182ab5827cb3b7e07fbedcd63f033005460ff1615610f7d5760405163d93c066560e01b815260040160405180910390fd5b60008051602061226c833981519152805460011901611bc857604051633ee5aeb560e01b815260040160405180910390fd5b60029055565b600160008051602061226c83398151915255565b33611c147f9016d09d72d40fdae2fd8ceac6b6234c7706214fd39c1cd1e609a0528c199300546001600160a01b031690565b6001600160a01b031614610f7d5760405163118cdaa760e01b8152336004820152602401610577565b7f9016d09d72d40fdae2fd8ceac6b6234c7706214fd39c1cd1e609a0528c19930080546001600160a01b031981166001600160a01b03848116918217845560405192169182907f8be0079c531659141344cd1fd0a4f28419497f9722a3daafe3b4186f6b6457e090600090a3505050565b611cb6611cdf565b610dda81611d28565b611cc7611cdf565b610f7d611d30565b611cd7611cdf565b610f7d611d63565b7ff0c57e16840df040f15088dc2f81fe391c3923bec73e23a9662efc9c229c6a0054600160401b900460ff16610f7d57604051631afcd79f60e31b815260040160405180910390fd5b611b20611cdf565b611d38611cdf565b7fcd5ed15c6e187e77e9aee88184c21f4f2182ab5827cb3b7e07fbedcd63f03300805460ff19169055565b611bce611cdf565b600060208284031215611d7d57600080fd5b5035919050565b60008083601f840112611d9657600080fd5b50813567ffffffffffffffff811115611dae57600080fd5b6020830191508360208260051b8501011115611dc957600080fd5b9250929050565b60008060008060408587031215611de657600080fd5b843567ffffffffffffffff80821115611dfe57600080fd5b611e0a88838901611d84565b90965094506020870135915080821115611e2357600080fd5b50611e3087828801611d84565b95989497509550505050565b8015158114610dda57600080fd5b60008060408385031215611e5d57600080fd5b823591506020830135611e6f81611e3c565b809150509250929050565b80356001600160a01b0381168114611e9157600080fd5b919050565b600080600060608486031215611eab57600080fd5b83359250611ebb60208501611e7a565b9150604084013590509250925092565b60008060408385031215611ede57600080fd5b611ee783611e7a565b91506020830135611e6f81611e3c565b600060208284031215611f0957600080fd5b611f1282611e7a565b9392505050565b634e487b7160e01b600052604160045260246000fd5b600082601f830112611f4057600080fd5b8135602067ffffffffffffffff80831115611f5d57611f5d611f19565b8260051b604051601f19603f83011681018181108482111715611f8257611f82611f19565b6040529384526020818701810194908101925087851115611fa257600080fd5b6020870191505b84821015611fc957611fba82611e7a565b83529183019190830190611fa9565b979650505050505050565b60008060408385031215611fe757600080fd5b823567ffffffffffffffff80821115611fff57600080fd5b61200b86838701611f2f565b9350602085013591508082111561202157600080fd5b5061202e85828601611f2f565b9150509250929050565b60006101008201905060018060a01b0380845116835280602085015116602084015280604085015116604084015250606083015160608301526080830151608083015260a083015160a083015260c0830151151560c083015260e08301516120a460e084018215159052565b5092915050565b6000806000606084860312156120c057600080fd5b6120c984611e7a565b9250611ebb60208501611e7a565b60208082526019908201527f43616c6c6572206973206e6f742077686974656c697374656400000000000000604082015260600190565b634e487b7160e01b600052603260045260246000fd5b60006020828403121561213657600080fd5b8135611f1281611e3c565b6020808252600e908201526d1119585b081b9bdd08199bdd5b9960921b604082015260600190565b60208082526010908201526f4465616c20697320696e61637469766560801b604082015260600190565b6020808252600f908201526e24b731b7b93932b1ba103a37b5b2b760891b604082015260600190565b60208082526018908201527f546f6b656e206973206e6f742077686974656c69737465640000000000000000604082015260600190565b634e487b7160e01b600052601160045260246000fd5b8181038181111561221c5761221c6121f3565b92915050565b60006020828403121561223457600080fd5b8151611f1281611e3c565b8082018082111561221c5761221c6121f3565b600060018201612264576122646121f3565b506001019056fe9b779b17422d0df92223018b32b4d1fa46e071723d6817e2486d003becc55f00a264697066735822122092dbd285a727873686454e0ec756a02fd8ddf229674286eccc29b9d807b2c5bd64736f6c63430008180033",
  "linkReferences": {},
  "deployedLinkReferences": {}
}